:020000040800F2
:1000000088060020C5000008CD000008CF000008C9
:1000100000000000000000000000000000000000E0
:10002000000000000000000000000000D1000008F7
:100030000000000000000000D30000087524000844
:10004000D700000800000000D7000008D700000813
:10005000D7000008D7000008D7000008D700000824
:1000600000000000D7000008B9030008D70000080E
:10007000D7000008D7000008D700000800000000E3
:10008000D70000080000000000000000D7000008B2
:1000900000000000D7000008D7000008D7000008C3
:1000A00000000000D700000800000000D700000892
:1000B0000348854600F06EF900480047092B000808
:1000C000880600200448804704480047FEE7FEE712
:1000D000FEE7FEE7FEE7FEE7F5240008B1000008B2
:1000E00030B50B46014600202022012409E00D46D0
:1000F000D5409D4205D31D469540491B2546954058
:1001000040191546521E002DF1DC30BD70B500249B
:100110002546002801DA01244042002901DA0125A0
:100120004942FFF7DDFFAC4200D04042002C00D036
:10013000494270BD10B5202A04DB0846203AD04061
:10014000002110BD0B46D340D0402024A21A91407C
:100150000843194610BD03460B439B0703D009E033
:1001600008C9121F08C0042AFAD203E00B780370F2
:10017000401C491C521EF9D27047D2B201E00270F5
:10018000401C491EFBD270470022F6E710B513460B
:100190000A4604461946FFF7F0FF204610BDF8B5A1
:1001A00002464A40D40F42004B0052085B089A4274
:1001B00002D20246084611464A0023D0C30D4A0027
:1001C000DDB2120EAD1A202D35DA49020126490A98
:1001D000F6058A19002C00D0524220214F1B1146EF
:1001E000B9402A411018C20D9A4221D0002C17D0D4
:1001F000012D08DCDA05801AD20F8019D207DBB294
:1002000000F08FF8F8BDDA05801A012340001B06C4
:10021000C01880185A428018CA0F1043490007E0DE
:100220004908C2071143DA05801A8019400880186E
:1002300000F06FF8F8BD61000122511A001BF7E7CA
:100240000122D2075140AAE70122D2075040A6E777
:10025000024670B54A40D30FDB0740002DD04A005C
:100260002AD0010E140E000212020919400A520A85
:100270008418E50104465443000A120A2E04504330
:10028000A4194219200CC543AA18120C0125AD036C
:10029000521C521912047F39240400D0521C1043FE
:1002A00001D44000491EC2B20C06C0092018401CEF
:1002B0004008802A02D003E0002070BD40084000C2
:1002C000002900DA0020184370BDC217C10F50404A
:1002D00010B54018CA079623002100F022F810BD7F
:1002E000C20F410040020123400ADB05D207090E7C
:1002F000C0187F2901DA00207047962903DC962375
:10030000591AC84001E096398840002AF4D040428A
:100310007047002904DA401C490001D14008400020
:10032000704770B40024050C05D11024000402D1DC
:10033000002921D01124050E01D100020834050F37
:1003400001D10001241D850F01D18000A41C0028CB
:1003500001DB4000641C002908D020252E1B0D461F
:10036000F540A14000D001212943084301061B1B91
:10037000000ADB1D02D5002070BC7047DB05181891
:1003800080180029F8DA401C4900F5D170BC4008FB
:1003900040007047064C0125064E05E0E36807CC97
:1003A0002B430C3C98471034B442F7D3FFF784FE3C
:1003B0004C2C00086C2C000810B5034800F0CEFB54
:1003C000024800F0CBFB10BDC80100208C010020CA
:1003D00010B5046863604368102B036803D099600C
:1003E0000068C26010BD9A600068C16010BD000066
:1003F0000E490A880E49098800280DD0012813D11A
:100400000C48002902D0002A03D009E082420BD018
:1004100008E0814206D007E0002A05D0002901D07B
:10042000AB2070474020704700207047003800081C
:10043000003C0008EEEE00001FB50020134C0390B6
:100440000090012120460194029100F07FF90028DC
:1004500005D103A9684600F0C1FC002814D1002290
:1004600013462146012000F013FD00280CD1084856
:10047000019000F06BF9002805D103A9684600F04F
:10048000ADFC002800D1002004B010BD00380008E9
:10049000003C0008F0B585B00024554E0394328826
:1004A000671E544D288801210291390C0196009451
:1004B000002A66D0504BD21821D05049CA421BD1D5
:1004C000002808D05942884216D1304600F03EF943
:1004D000002807D00CE0304683E003A9684600F00E
:1004E0007DFC49E003A9684600F078FC002846D16D
:1004F0000022134629463CE0FFF79EFF3CE000281F
:1005000008D08842F8D12846019500F01FF900284C
:1005100026D02BE03648C28839496600885B824283
:1005200000D127B2BC420CD0364900F0C3F80128F4
:1005300007D033483349805B098800F0DDF8002894
:100540001DD1641CA4B2032CE4D300221346284915
:10055000012000F09DFC002811D1009028463DE0CC
:1005600003A9684600F03AFC002808D1002213468F
:100570003146012000F08CFC002800D1002005B09D
:10058000F0BD0028B8D0884202D12846019528E065
:100590001848C1881A486500425B914200D127B2D1
:1005A000BC420DD01749104600F084F8012807D04E
:1005B00013481449405B098800F09EF80028DED1FA
:1005C000641CA4B2032CE3D3002213460949012082
:1005D00000F05EFC0028D2D100903046012102914B
:1005E000019000F0B3F8002800D176E7C6E70000DC
:1005F00000380008003C00081211FFFFEFEEFFFF7B
:10060000180000200C000020F3B5254C002685B012
:100610000F46254630460396FFF7EAFE214940285B
:1006200004D0002804D0AB2007B0F0BD0C4600E099
:100630000D461D4A00232946012000F029FC002810
:10064000F2D13946059800F057F80028ECD1174947
:100650007700C85B059A90420CD0154900F02AF843
:10066000012807D011481249C05B098800F044F8FE
:100670000028D9D1761CB6B2032EE8D30020009012
:1006800001200290019403A9684600F0A7FB00280E
:10069000CAD1002213462946012000F0F9FBC3E726
:1006A00000380008003C0008EEEE000018000020B2
:1006B0000C000020F8B506460D4601240C4F002022
:1006C000FFF796FEAB2811D081020A4AC8198A1892
:1006D000801C08E01188B14204D1403AD08F2880B4
:1006E000002402E0121F8242F4D82046F8BD000028
:1006F00000380008FE3B000870B506460D46114C58
:100700000120FFF775FEAB280BD080020E490419BB
:10071000401803E02168491C04D0241D8442F9D309
:10072000802070BD2A4600232146012000F0B0FB46
:100730000028F6D132460023A11C012000F0A8FBBE
:1007400070BD000000380008FF3B000810B5012113
:10075000064B074C05E002889A4201D0002102E0D6
:10076000001DA042F7D9084610BD0000FFFF0000A1
:10077000FF3B000870B50C460546FFF7BDFF80281B
:1007800003D121462846FFF73FFF70BDFEE700007A
:1007900006490020C861064801690422114301612D
:1007A0000169402211430161704700006802002086
:1007B00000200240064A0021D16106490A6902234D
:1007C0001A430A6148610869402210430861704772
:1007D000680200200020024010B5054B0022DA61BB
:1007E000044A1369012423431361018010BD0000F2
:1007F000680200200020024010B50B4A0020D1689A
:10080000CB060A4904D5C86902231843C8611020E1
:10081000D3685B0705D5CB6901242343CB61042151
:100820000843D06010BD0000002002406802002094
:1008300070B5054600F02AFC0646104C0AE0681C1C
:1008400008D0002D04D000F021FC801BA84201D963
:10085000032070BDE068C007F1D1E068800601D5D3
:100860002020E060E068C00602D4E068400703D5BD
:10087000FFF7C2FF012070BD002070BD00200240C4
:100880000148C0887047000010000020014880889F
:100890007047000010000020F8B5002504464034E1
:1008A00000952278012A39D00122227003689E68BF
:1008B000760767D4384F4E68BE424DD09E6A0F7897
:1008C000BA4016439E620123826B1B079A421FD0D7
:1008D000012A1DD0022A1BD0032A19D0042A17D0BE
:1008E000052A15D0062A13D0072A11D002688B6872
:1008F00056697607760FB3420AD05369DB08DB00EE
:100900005361006842690B7A5B075B0F1A434261CF
:100910000A68102A04D0112A02D038E00220F8BD5B
:100920001E488368102A07D0012292051343836072
:100930000868102803D02AE00122D205F6E71948FA
:1009400017490068FFF7CCFB0A21484300E0401E2E
:1009500000900028FBD11AE0986A0E78B2409043CC
:1009600098620968102901D0112910D10B488268BA
:10097000102904D0012189058A43826007E0012102
:10098000C905F9E7416C202211434164012500208B
:1009900020702846F8BD000001100000002701402B
:1009A00040420F0000000020F8B500250446002852
:1009B00003D0606C002802D008E00120F8BD0020C0
:1009C000A06440210855204600F0A8F8606C102271
:1009D000104270D12068816849076CD4616C1301A2
:1009E000994302231943616481688907890F0129AA
:1009F00005D10168C9070FD1C16809040CD4C168C9
:100A00001826B143A6683143C16020680169666851
:100A100089008908314301612068C1683D4E314039
:100A2000C160A069E1698003C9030843216A4E03DC
:100A30003043666B012E02D00126360300E000260B
:100A40003043E66830432669022E08D00026304342
:100A5000266B76003043666A012E02D00BE0042636
:100A6000F5E7002928D0616C202631436164A16C30
:100A700001263143A164A16A0E46FF3EC23E02D068
:100A8000E66A314308432168CE680643CE600126FA
:100A9000A16B3607B14213D0012911D002290FD022
:100AA00003290DD004290BD0052909D0062907D028
:100AB000072905D010E028E0012109040843DAE7FE
:100AC00021684E69F608F6004E6121684E69278F4D
:100AD0007F077F0F3E434E612168C9680E4E31404B
:100AE000814207D10020A064606C80088000401C17
:100AF000606408E0606C984310436064A06C01215E
:100B00000843A06401252846F8BD606C104360646A
:100B1000F8E700001902FEFFE7FF3F8300B5006819
:100B20000C4987B0884212D10B48826941150A43AB
:100B300082618069084005900720009003200190A1
:100B40000020029009206946C00600F0F1F907B0C4
:100B500000BD00000024014000100240F8B504462A
:100B600074480168734A734E724F08322068D31478
:100B70001C363037904201D1082210E0B04201D13A
:100B800080220CE0B84201D11A4608E0694A44329A
:100B9000904202D10122D20301E00122D204254673
:100BA0001140203500292ED00168C94309072AD4F5
:100BB00001680822914301605E492068083188423B
:100BC00001D1082010E0B04201D180200CE0B842F1
:100BD00001D1184608E057494431884202D101202A
:100BE000C00301E00120C00452494860A06B01210C
:100BF0000843A0630420687000202870216B00293E
:100C000001D0204688474B4802684A49206808318D
:100C10000B15884201D1042110E0B04201D14021DE
:100C20000CE0B84201D1194608E0424944318842FB
:100C300002D10121890301E0012189040A422BD05C
:100C40000168C943490727D40168890603D40268AB
:100C500004218A430260374920680831884201D163
:100C6000042010E0B04201D140200CE0B84201D194
:100C7000184608E02F494431884202D10120800300
:100C800001E0012080042B49486011206870E16A6E
:100C9000002901D020468847264802682549206857
:100CA0000831884201D1022311E0B04201D1202352
:100CB0000DE0B84202D101235B0208E01D4B443332
:100CC000984202D101235B0301E001235B041A4235
:100CD0002ED00268D24392072AD40268920603D427
:100CE000026802239A4302602068884201D10220F0
:100CF00011E0B04201D120200DE0B84202D1012024
:100D0000400208E00B494431884202D101204003EF
:100D100001E00120400407494860A06BA063012066
:100D2000687000202870A16A002901D020468847F9
:100D3000F8BD000000000240F0B5002806D00146D2
:100D400020314A780024002A02D002E00120F0BDC0
:100D50000C7002224A7005682B680B4A86681340A3
:100D6000426807693243C6683E43324346693243AC
:100D700086693243C66932431A432A60846301207C
:100D800048700020F0BD00000FC0FFFFF8B504461A
:100D900020300578012D1ED00125057002264670F1
:100DA00020680768AF4307602046FFF711FB206803
:100DB0000168314301602068016804221143016029
:100DC00020680168082211430160206801682943F6
:100DD00001600020F8BD0220F8BD0000F8B505460E
:100DE00023480F46017E012601290BD001210176FF
:100DF0002868204C012807D02046FFF719FD00285D
:100E000013D030E00220F8BD2046FFF711FD002886
:100E100029D1FFF7BDFC2046FFF70AFD064616481C
:100E200001690422914301611DE00020C043386044
:100E30006C6812E02046FFF7BDFC0E48FFF7F8FC97
:100E400006460D48026902218A430261002E01D044
:100E50003C6008E0012080022418A86881026868CC
:100E60000818A042E6D80248002101763046F8BDB5
:100E70006802002050C300000020024003480169BE
:100E800080221143016100207047000000200240D1
:100E9000F0B51FB407461A480024017E15461E46C9
:100EA000012907D0012101761648FFF7C1FC00286F
:100EB00003D020E0022005B0F0BD012F02D0022FA8
:100EC00000D00427220128463146FFF733F981B2CA
:100ED000019862001018FFF77FFC0A48FFF7A8FC92
:100EE00009490A69520852000A61002803D1641CAA
:100EF000E4B2BC42E6D3024900220A76DBE70000F6
:100F00006802002050C3000000200240054801692B
:100F1000090605D504494160044941600020704735
:100F2000012070470020024023016745AB89EFCDC7
:100F3000F8B500238DE001249C40A44622407DD0DA
:100F40004C68022C01D0122C0CD1DC08A40027180C
:100F50003C6A5D07ED0E0F26AE40B4430E69AE400D
:100F600026433E6205685E000324B4400F79A54322
:100F7000BF07BF0FB7402F4307604D68012D05D055
:100F8000022D03D0112D01D0122D0ED18568CF680E
:100F9000A543B7402F43876047686546AF430D7947
:100FA000ED06ED0F9D403D434560C568A5438C6847
:100FB000B4402C43C4604C68E40049D5284CA56972
:100FC00001263543A561A4699D0834400094254C51
:100FD000AD002F19BC689D072E0F0F25B540AC43FF
:100FE0000925ED06A84201D100250FE01E4DA842BB
:100FF00001D101250AE01D4DA84201D1022505E0DD
:101000001B4DA84201D1032500E00525B54025432D
:10101000BD60184C25684E689543F60300D515430E
:10102000256065684E689543B60300D51543656035
:10103000A5684E689543F60202D500E008E0154326
:10104000A560E5684E689543B60200D51543E56096
:101050005B1C0A681446DC4000D06CE7F8BD000059
:101060000010024000000140000400480008004851
:10107000000C00480004014042694A404261704748
:10108000002A01D081617047816270470148006881
:10109000704700007C00002070B504000CD0206870
:1010A000C168C943C90709D1C168C943890705D4C3
:1010B000C068C043400701D4012070BD607C002897
:1010C00003D12074204600F03DF8022060742168AE
:1010D0001A480860206841686268C908C90011435D
:1010E000416020688168A268090B0903114381608F
:1010F0001348E168814203D121680969814218D00F
:10110000FFF7C4FF7D260546F60007E0FFF7BEFFA8
:10111000401BB04202D90320607470BD2068C068D3
:101120000028F3D120680169E268090B0903114323
:10113000016101206074002070BD00005555000061
:10114000FF0F000070470000F8B50446007C01283E
:1011500008D00126267402206074FFF797FF054629
:1011600000270CE00220F8BDFFF790FF411B7D2017
:10117000C000814203D9032060742774F8BD206841
:10118000C068C0438007EFD52168034808606674D3
:1011900027740020F8BD0000AAAA0000F8B5044694
:1011A000007C012812D001262674022060741649A2
:1011B000E068884202D12168144808602168144818
:1011C0000860FFF763FF054600270CE00220F8BD2A
:1011D000FFF75CFF411B7D20C000814203D9032043
:1011E00060742774F8BD2068C168C943C90707D176
:1011F000C168C943890703D4C068C0434007E7D525
:10120000667427740020F8BDFF0F0000AAAA000032
:10121000CCCC000002480168491C01607047000006
:101220007C00002010B506480168102211430160BF
:10123000002000F007F800F017F8002010BD0000B3
:101240000020024010B5044600F042F97D21C9009B
:10125000FEF746FF00F046FB00222146501E00F03C
:1012600029F8002010BD000008B50C488169012252
:101270001143816180691040002200901146501F87
:1012800000F018F800221146901E00F013F800221A
:101290001146501E00F00EF808BD0000001002407C
:1012A000C106C90E0120884001490860704700004E
:1012B00000E100E010B500F003FF10BDF8B50546F1
:1012C0000068354CC00352D5E0690026C00007D441
:1012D000E16920040143E161E169014001260091D7
:1012E0002E480168C90510D40168821511430160B8
:1012F000FFF7CCFE074604E0FFF7C8FEC01B6428DA
:1013000024D826480068C005F6D5206A03273F0286
:10131000384020D06968394081421CD0206A226A56
:10132000B843012109040A432262226A8A432262E5
:101330002062C0070FD0FFF7A9FE009008E0FFF77A
:10134000A5FE0099411A1648814201D90320F8BD33
:10135000206A8007F3D5206A6968B8430843206291
:10136000002E04D0E169012000078143E161287863
:10137000C00705D0206BA96880088000084320635F
:101380002878800605D5206B10218843E96808433A
:1013900020630020F8BD00000010024000700040F3
:1013A00088130000F8B5054644480E460068C0079B
:1013B000C00FB0420AD24148016849084900314390
:1013C00001600068C007C00FB0425CD128783C4C77
:1013D000800705D56068F0218843A96808436060EC
:1013E0002878C0073FD06868012813D021680228F8
:1013F00013D08907002946DA61688908890001430A
:101400006160FFF743FE6968074601290DD0022994
:1014100017D024E021688903ECE78901EAE7FFF7A8
:1014200035FEC11B2748814217D860680007800F2E
:101430000128F4D117E0FFF729FEC11B21488142A2
:101440000BD860680007800F0228F4D10BE0FFF78B
:101450001DFEC11B1B48814201D90320F8BD6068F5
:101460000007800FF3D115480168C907C90FB142C1
:101470000BD9016849084900314301600068C00781
:10148000C00FB04201D00120F8BD2878400706D532
:101490006068072109028843E9680843606000F03A
:1014A0002DF86168084A0906090F515CC8400749D0
:1014B00008600020FFF7C6FE0020F8BD00200240B3
:1014C0000010024088130000342C000800000020A7
:1014D00001480068704700000000002004480549EA
:1014E00000684968044A4905490F515CC840704783
:1014F0000000002000100240442C000810B512A388
:101500000FCB88B06C460FC413A30FCB0FC4164982
:101510004A680C20134603401448042B0FD0082BB4
:101520000DD193021B0F6C46E45CC96A04AB09073A
:10153000090F595CD20304D5FEF7D2FD604308B011
:1015400010BD0B486043FAE70203040506070809CB
:101550000A0B0C0D0E0F10100102030405060708FC
:10156000090A0B0C0D0E0F100010024000127A0039
:1015700000093D00FEB504460078D04DC00747D0B5
:1015800068680007800F012807D068680007800F8F
:10159000022809D16868C00306D52868800337D5BA
:1015A000606800287ED033E0012062680004012AD0
:1015B00011D08100002A01D0052A10D02A68824368
:1015C0002A602868884328606068002814D0FFF7E4
:1015D0005DFD06460CE0296801432960F4E72A68AE
:1015E0000A432A60F7E7FFF751FD801B64286FD894
:1015F00028688003F7D50BE0FFF748FD064604E0B6
:10160000FFF744FD801B6428F1D828688003F7D4D5
:1016100020780126800700283BDA68680007800FE1
:1016200007D068680007800F022809D16868C003E6
:1016300006D42868800715D5E068012832D111E06A
:10164000E0680028286815D030432860FFF71EFDA9
:10165000074604E0FFF71AFDC01B0228C7D8286818
:101660008007F7D52868F82188432169C900084315
:1016700028600EE0400840002860FFF707FD07469D
:1016800004E0FFF703FDC01B0228B0D828688007DC
:10169000F7D42078000724D5E0690028686A10D0C4
:1016A000304300E008E16862FFF7F0FC074604E021
:1016B000FFF7ECFCC01B022899D8686A8007F7D5B1
:1016C0000FE0400840006862FFF7E0FC074605E0D5
:1016D0009DE0FFF7DBFCC01B022888D8686A800702
:1016E000F7D4207804274007002860DA0020019012
:1016F000E869C00008D4E969B8060143E961E9690D
:1017000001400120009101906D480168C90511D484
:101710000168821511430160FFF7B8FC009005E0F5
:10172000FFF7B4FC0099401A642870D86448006838
:10173000C005F5D5A06801280AD0002801D00528E9
:1017400010D0286A400840002862286AB84301E0A7
:10175000286A30432862A068002812D0FFF796FC60
:1017600000900AE0286A38432862F1E7FFF78EFC10
:101770000099411A5348814249D8286A8007F5D513
:101780000DE0FFF783FC009006E0FFF77FFC009977
:10179000411A4C4881423AD8286A8007F5D401980A
:1017A000002804D0E969012000078143E96120781D
:1017B000C00635D5606901280CD0401D686B23D068
:1017C00038436863686B400840006863FFF75EFC5D
:1017D000064622E0686B38436863686B3043686391
:1017E000FFF754FC064604E0FFF750FC801B02287C
:1017F0005BD8686B8007F7D5686BF8218843A169CF
:10180000C900084368630BE0B8436863F4E74CE041
:10181000FFF73CFC801B022847D8686B8007F7D491
:10182000206A002846D069680907890F022943D039
:10183000012636060228286805D0B0432860FFF745
:1018400025FC044633E0B0432860FFF71FFC074641
:1018500004E0FFF71BFCC01B022826D82868800183
:10186000F7D4E86AE16A000900010843E862616AA6
:10187000A06A084369683D221204914308436860E6
:10188000286830432860FFF701FC044604E0FFF7B6
:10189000FDFB001B022808D828688001F7D509E065
:1018A000FFF7F4FB001B022801D90320FEBD2868C6
:1018B0008001F5D40020FEBD0120FEBD00100240D5
:1018C00000700040881300000422044904280869BD
:1018D00002D09043086170471043FBE700E000E04E
:1018E00070470000094910B5401E884201D9012007
:1018F00010BD074C60610321081F00F0E1FB0020D0
:10190000A06107202061002010BD0000FFFFFF0044
:1019100000E000E010B5FFF7E3FF10BD70B5024630
:101920002032137E012B1BD0012313760224547620
:10193000046865687026B5436560046865680E686C
:10194000354365600468A5688026B543A5600068D6
:10195000846849680C43846053760020107670BD1B
:10196000022070BD70B5040005D025462035687E84
:10197000002802D006E0012070BD00202876204615
:1019800000F00AF802206876211D206800F0E0FDD2
:1019900001206876002070BD08B5006805498842BE
:1019A00007D10548C26902210A43C261C0690840E3
:1019B000009008BD0004004000100240F8B5054644
:1019C00004462035287E012817D001272F760220D3
:1019D0006876226890687726FF23B0431B029843FD
:1019E00090600868502837D00EDC202857D006DCDD
:1019F00000284ED0102840D14EE00220F8BD3028FB
:101A000050D0402839D13CE060282DD0702817D024
:101A100001221203801A0ED090422ED1CB684A6860
:101A20008968206800F0D9FD20688168012292034E
:101A30001143816021E020688168C908C900F8E786
:101A4000CB684A688968206800F0C7FD216888680B
:101A5000B0433043886010E0CA684968206800F0ED
:101A6000B1FE5021206806E0CA684968206800F08D
:101A7000BAFE6021206800F0BBFD6F76002028765A
:101A8000F8BDCA684968206800F09CFE40212068C3
:101A9000F1E700212068EEE710212068EBE7202124
:101AA0002068E8E730212068E5E7000000B500681D
:101AB000094985B088420DD1802000900220019014
:101AC0000020029003900120049009206946C0067E
:101AD000FFF72EFA05B000BD00040040F8B5064639
:101AE00004462036307E0D4601280DD00120307688
:101AF000022070760427002A08D0042A16D0082A6B
:101B00002AD00C2A4DD137E00220F8BD206800F021
:101B100077FD20688169082211438161206881690D
:101B2000B9438161206881692A6912E0206800F068
:101B3000A3FD206882690121C9020A4382612068ED
:101B400081690122920291438161206881692A6939
:101B500012021143816124E0206800F0C7FD206873
:101B6000C26908210A43C2612068C169B943C161E1
:101B70002068C1692A6912E0206800F0F3FD20683E
:101B8000C1690122D2021143C1612068C2690121E9
:101B900089028A43C2612068C1692A69120211431D
:101BA000C1610120707600203076F8BD70B5040068
:101BB00005D025462035687E002802D006E00120A9
:101BC00070BD00202876204600F00AF802206876D2
:101BD000211D206800F0BCFC01206876002070BD4B
:101BE0007047000010B504460068012200F0EAFCCE
:101BF0000A482168814205D00948814202D009483B
:101C0000814204D1486C0122D20310434864206809
:101C10000168012211430160002010BD002C014029
:101C2000004401400048014030B5044600680022ED
:101C300000F0C8FC144A134821689310814205D073
:101C40001248814202D0124881420AD1086A1042E9
:101C500007D1086A184204D1486C0125ED03A84356
:101C600048642068016A114206D1016A194203D111
:101C70000168490849000160012020346076002095
:101C800030BD0000002C0140111100000044014053
:101C900000480140704770B5040005D02546603506
:101CA000687A002802D006E0012070BD002028726A
:101CB000204600F027F8242068722068016849084F
:101CC00049000160204600F059FE0128EDD0606A0D
:101CD000002802D0204600F099FD206841680122CA
:101CE000D20291434160206881680822914381605B
:101CF00020680168012211430160204600F0EBFDDD
:101D000070BD0000F0B506460068234987B08842E0
:101D100040D122488269012189030A438261806996
:101D2000084005904120C000009002200190012150
:101D3000032003900291049109206946C006FFF731
:101D4000F7F81748174D002411C52C60AC60EC6003
:101D500080272C616F606C611248083DFEF7ECFF34
:101D6000002801D0FEF712FD75666E620C480E4D1C
:101D7000143828601020291D91C12C616C61AC6160
:101D80002846EC61FEF7D8FF002801D0FEF7FEFCE4
:101D900035666E6207B0F0BD0038014000100240A9
:101DA000300002408C010020C8010020F8B5054633
:101DB00004466035A87A202834D100290BD0002AA7
:101DC00009D00123A0681B03984206D1206900288E
:101DD00003D1C80701D00120F8BD287A012821D0FD
:101DE000012028725820616502530026E6662220F1
:101DF000A872636E0C489862636E0C48D862636E7A
:101E00000B481863134627680A4639462431606E2A
:101E1000FEF7BCFF206881684022114381602E726A
:101E20000020F8BD0220F8BD0D2900083729000860
:101E3000E928000810B50068084988420DD1084C0F
:101E4000002020700121074800F0E0FA0122054936
:101E50000548FFF7ABFF0120207010BD003801409E
:101E600004000020060000201C0100207047000034
:101E7000F8B5054604466035687A202838D100292F
:101E80000BD0002A09D00123A0681B03984206D179
:101E90002069002803D1C80701D00120F8BD287AA5
:101EA000012825D00120287220464030E1640282BA
:101EB00042820026E66621206872236E0D489862F1
:101EC000236E0D48D862236E0C48186327681346AA
:101ED0003A462832206EFEF759FF216840200862FA
:101EE000206881688022114381602E720020F8BD35
:101EF0000220F8BD4129000871290008E9280008DE
:101F0000704770470F4910B52022881A00F088F9F1
:101F10000C49202220310846303800F081F9FEF7C4
:101F2000F5FFFEF7B7FA084807490088891DFEF754
:101F3000C1FBFEF7A3FF04480349801D0088083950
:101F4000888010BD2402002018000020F8B500236E
:101F50000B4D1A466C0C0AE05700C65BAE4200DD22
:101F6000C55FA64200DAC45FF318521C92B28A42DF
:101F7000F2D3581B001B891EFEF7C8F880B2F8BDCB
:101F80000080FFFF3EB51F491F48002412C00460B7
:101F90004460046144618461C461012544628560D8
:101FA000C56204218462C1600838FEF7FDFC002888
:101FB00000D0FEE70120000301900004029000948D
:101FC00069461148FEF768FC002800D0FEE7694624
:101FD0000D480095FEF760FC002800D0FEE70220C7
:101FE000009069460848FEF757FC002800D0FEE73D
:101FF0001120009069460448FEF74EFC002800D0EE
:10200000FEE73EBD002401408000002010B51C49C1
:102010001C488EB0002412C00460446084600838FC
:10202000FFF7A0FC002800D0FEE701200003079086
:1020300007A91448FFF7C2FC002800D0FEE71148AA
:10204000FFF7B4FD002800D0FEE70B940BA90D4864
:102050000C94FFF763FC002800D0FEE7602000909E
:10206000019402940422694604940648FFF736FD61
:10207000002800D0FEE70348FFF718FD0EB010BDA2
:1020800000040040E000002010B50C480A4901603F
:102090004B214902416000218160C1600161816181
:1020A000C1610C22016242614162FFF7F4FD002828
:1020B00000D0FEE710BD0000003801401C010020E8
:1020C0008307FF22DB0E9A408907090E99400028FA
:1020D0000BDA0007000F0838830808489B0018181F
:1020E000C36993430B43C3617047830804489B0053
:1020F0001B181868904308431860704700ED00E013
:1021000000E400E0FEB5254C2080401A05B2618055
:10211000A580C82D01DD22483CE02846FF21C730BC
:102120009031884233D20626A65F08217000615E96
:10213000281A4018FEF7C9F86169FEF789F80746C2
:102140002846FEF7C2F82169FEF782F80190A81B25
:10215000FEF7BBF8E168FEF77BF80090E069FEF758
:10216000B4F80099FEF71BF80199FEF718F8394604
:10217000FEF715F8FEF7B4F8A0612681E580E0616E
:10218000002806DB0649884205DDA16103E0002D39
:1021900001DA0020A061208B80B2FEBD2400002067
:1021A000E703000030B59DB005461A4800900720AF
:1021B0000190002418480390029404946846FFF7A5
:1021C000D1FB01200003169016A96846FFF7F6FB25
:1021D0006846FFF7EBFC1A941AA968461B94FFF7B0
:1021E0009DFB602011940FA9139421C1042268461D
:1021F0000839FFF773FC09480078002805D004214E
:102200006846FFF7EFFC1DB030BD04216846FFF7BC
:102210000BFDF8E700040040E70300001000002079
:102220000260C160416081600020704770B5002489
:1022300083680FE0C56806685B1CAD199D4200D835
:10224000C36845689D4207D00D7886683570836005
:10225000491C641C9442EDD3204670BDF0B544681F
:102260009446056809E022788A420BD0C268066865
:10227000641C9219A24200D8C4688268A24201D0AC
:102280006D1EF0D28268A24227D06A1C25D0C66893
:102290000768F619671CBE420AD8C76808E03A7892
:1022A0008A420AD0C66802687F1CB218BA42F4D9C2
:1022B0008268BA4201D06D1EF1D28168B9420CD059
:1022C000691C0AD0C16802687F1C8918B94200D80D
:1022D000C76801684D1B002110E0C1684160C168FA
:1022E00081600020F0BD267862465654C6680268B8
:1022F000491CB218641CA24200D8C468BC4206D073
:10230000994204D202688A4201D96D1EEBD2022999
:1023100008DCC2680021641E944203D2C2680368CC
:10232000D418641E44600846F0BD000000B585B0B6
:102330000020401C0A28FCDB0A216846FFF706FE45
:102340000149C88005B000BD1000002010B50B4643
:102350000246FF210148FFF781FF10BD0402002063
:10236000F8B5274E274831780090012907D1002081
:10237000707006210098FFF7E9FF01207070214D71
:10238000123DA87CFF2836D1E87DFF2833D12C46AA
:10239000203C2046A16A33308847A97D81422AD15A
:1023A000E87C27462C37022804D0032805D00428CF
:1023B00021D112E0A08E616812E0E0688047B08011
:1023C0000646062238460099FDF7C5FEE6850D480B
:1023D000A16A401F8847287403E0A08E6169C0B2DB
:1023E0008847062238460099FDF7B5FE0622394691
:1023F0000548FFF73DFD06210098FDF7C5FEF8BD35
:1024000004000020760000201C0100200A4610B5C0
:1024100001460248FFF70AFF10BD00000402002039
:1024200010B50446FEF772FD054821460088FEF708
:10243000A1F9FEF723FD02480838848010BD000092
:102440001800002000B58FB0084900910849002805
:10245000087005D004216846FFF7C4FB0FB000BD2B
:1024600004216846FFF7E0FBF8E7000000040040A5
:102470001000002010B5FEF7CDFEFFF74BFA10BD9F
:1024800030B595B001251A200595009010200395D0
:10249000049000240690079508946846FFF76AF8B0
:1024A000002800D0FEE707200C900D940E94002128
:1024B0000F940CA8FEF776FF002800D0FEE710A8C6
:1024C00010951294FEF7FAFE002800D0FEE7FEF702
:1024D000FFFF7D21C900FDF703FEFFF703FA04208B
:1024E000FFF7F2F900221146501EFEF7E3FE15B089
:1024F00030BD0000134801680122114301604168AA
:10250000114A114041600168104A114001600168A0
:10251000012292049143016041683F2212049143D9
:102520004160C16A09090901C162016BFF221432CD
:1025300091430163416B4908490041630021816077
:1025400070470000001002400CB8FF08FFFFF6FEC5
:1025500070B50268164B174D984201D0A84204D1BD
:10256000144670264A68B4432243134C134E9842D3
:1025700008D0A84206D0124DA84203D0A04201D0F4
:10258000B04204D103252D02AA43CD682A4302603C
:102590008A68C2620A688262984203D0A04201D06F
:1025A000B04201D1096901630121416170BD0000A0
:1025B000002C01400004004000440140004801405C
:1025C0000020004010B50123046A8B409C43046244
:1025D000036A8A401343036210BD30B58468FF2547
:1025E0002D021B021343AC430B432343836030BDD6
:1025F000826870239A430A4307210A438260704726
:10260000F0B5026A520852000262056A43688269A4
:102610007024A24392080C6892001443022295434E
:102620008A68134E2A43114DA84204D0B04202D00A
:10263000104FB84206D10827BA43CF681743042287
:1026400097433A46A84204D0B04202D0094DA8426E
:1026500006D103252D02AB434D691D438B692B43E6
:1026600043608461496841630262F0BD002C01400F
:10267000004401400048014070B5026A10239A43AB
:102680000262046A4368826973252D02AA430D68B9
:102690002D021543202294438A6812012243104CD4
:1026A000A04208D11446CA688026B44312012243CE
:1026B0004024A24305E00B4CA04202D00A4CA042A9
:1026C00008D10324A402A3434C69A4001C438B69D2
:1026D0009B0023434360856149688163026270BD4A
:1026E000002C0140004401400048014070B5026ADE
:1026F000FF2301339A430262046A4368C26970256A
:10270000AA4392080D689200154301225202944395
:102710008A6812022243104CA04207D1C414A2437B
:10272000CC68240222430615B24305E00B4CA042BC
:1027300002D00B4CA04208D103242403A3434C69CC
:1027400024011C438B691B0123434360C561496815
:10275000C163026270BD0000002C014000440140D2
:102760000048014030B5026A01231B039A4302620C
:10277000056A4268C36973242402A3430C682402D7
:102780001C4301235B039D438B681B032B430A4DB2
:10279000A84205D0094DA84202D0094DA84205D152
:1027A0000125AD03AA434D69AD012A434260C461CE
:1027B00049680164036230BD002C014000440140BF
:1027C0000048014030B5036A046A6408640004628A
:1027D0008469F025AC43120122430A24A3430B432E
:1027E0008261036230BD30B5036A1024A3430362E3
:1027F0008469036A0F252D031203AC432243A024EE
:10280000A343090119438261016230BD10B5818C77
:10281000C90707D001684A6801235B049A43836AA9
:102820001A434A60818C890707D501684A680123E9
:102830001B049A43C36A1A434A60818C490707D52F
:1028400001684A6801239B049A43036B1A434A6058
:10285000818C090707D501684A680123DB039A4385
:10286000436B1A434A60818CC90607D50268916898
:1028700001231B039943836B19439160818C890663
:1028800007D501688A6801235B039A43C36B1A4327
:102890008A60818C490612D503685A6801210905AE
:1028A000046C8A4322435A60026C8A4207D1026850
:1028B000516803235B059943436C19435160818C34
:1028C000090607D501684A680123DB04806C9A4336
:1028D00002434A6010BD0021C1662022603042726E
:1028E000827201720846704710B5406A00220146A4
:1028F00040314A834A82202220314A728A72C16E54
:1029000010221143C166FFF7C5F910BD10B501468D
:102910000968406A096889060AD400225A210A52C5
:1029200001688A6840239A438A6020226A210A54F7
:10293000FFF780FA10BD10B5406AFFF797FA10BD97
:1029400010B501460968406A096889060DD400225D
:1029500052210A5201688A6880239A438A6000687B
:10296000016840221143016010BDFFF7C9FA10BD94
:1029700010B5406AFFF7C5FA10BD0000F8B504466F
:102980002369A268E6691A43636910213343002072
:1029900026681A4333680546394F3B40134333607A
:1029A00023685A6803263603B243E66832435A6006
:1029B000236AA26926681A43B3680B273F02BB4308
:1029C0001343B3602F4A126B9207920F06D0012A6D
:1029D00008D0022A08D0032A07D101E0002104E030
:1029E000022102E0042100E008210122E369D20370
:1029F000934224D100290CD002290DD0042913D0F0
:102A0000082917D00125010909010007400F0843D3
:102A100032E0FEF763FD09E061681B4A4808801850
:102A2000FDF75EFB80B2EEE7FEF768FD61684000EF
:102A30004A08F4E76168012248081204EFE7002918
:102A400008D0022909D004290BD008290ED001256D
:102A50002846F8BDFEF742FD05E061680B4A4808CC
:102A600006E0FEF74BFD61684A0801E0616848082E
:102A70008018FDF735FB80B22168C860E8E70000E8
:102A8000F369FFFF001002400024F40000127A00F6
:102A900010B5014606220248FFF788F910BD000074
:102AA0001C01002010B5014606220248FFF7E0F99C
:102AB00010BD00001C01002002E008C8121F08C160
:102AC000002AFAD170477047002001E001C1121FAF
:102AD000002AFBD1704770B505460020032401464B
:102AE000E0236A5C50400022C60702D040085840EC
:102AF00000E04008521CD2B2082AF5D3491CC9B2E2
:102B0000A142EED370BD00008CB0FEF7BFFA059075
:102B1000FEF7BCFA0646FEF7B9FA0546FEF782FB59
:102B2000FFF7AEFC3D4C6169012040040143616147
:102B3000616900220140009109201021C006FEF7C2
:102B40009FFA10200690012000270790092008977F
:102B500006A90997C006FEF7EBF960690121084351
:102B60006061606900220840009011460A20FEF76B
:102B7000A1FB0A20FEF794FBFFF704FAFFF784FAA3
:102B8000FFF744FA2649274882C02749416001607F
:102B90000838FEF781FA002800D0FEE72148FEF74A
:102BA000FDFA2048012221495030FFF7FFF8204C60
:102BB000206880471B48FEF7C7FAFEF767FA0599B9
:102BC000401AC82809D9FEF761FA0590FFF7C8FB3B
:102BD00009201021C006FEF74FFAFEF757FA801BB6
:102BE000C82804D9FEF752FA064620698047FEF746
:102BF0004DFA401BC828DDD9FEF748FA0546E068C3
:102C000080470746A0688047626A3946904707496F
:102C1000891EC880A1698847CCE7000000100240E7
:102C200000300040CC000020FF0F00000600002014
:102C30004400002000000000000000000102030426
:102C40000607080900000000010203046C2C0008BC
:102C50000000002080000000B82A0008EC2C0008CA
:102C60008000002008060000C82A000800127A0030
:102C70000001000000000000000000000100320020
:102C8000A00F000055556666777700000000000031
:102C900000000000000000000000000000002041D3
:102CA00000000000CDCCCC3D0000000090010000F1
:102CB000051F0008212400088D080008810800086D
:102CC0002D23000845240008A5210008A52A000896
:102CD000912A000805210008D72A000800000000FA
:0C2CE000000000000000000000000000E8
:04000005080000B13E
:00000001FF
